{
  "_format": "hh-sol-artifact-1",
  "contractName": "MultiSend",
  "sourceName": "contracts/MultiSend.sol",
  "abi": [
    {
      "inputs": [
        {
          "internalType": "address[]",
          "name": "kk",
          "type": "address[]"
        },
        {
          "internalType": "uint256",
          "name": "amount",
          "type": "uint256"
        }
      ],
      "name": "sendToUsers",
      "outputs": [],
      "stateMutability": "payable",
      "type": "function"
    }
  ],
  "bytecode": "0x608060405234801561001057600080fd5b50610524806100206000396000f3fe60806040526004361061001e5760003560e01c806337da727614610023575b600080fd5b61003d60048036038101906100389190610314565b61003f565b005b81518161004c919061039f565b34101561008e576040517f08c379a000000000000000000000000000000000000000000000000000000000815260040161008590610456565b60405180910390fd5b60005b825181101561010e578281815181106100ad576100ac610476565b5b602002602001015173ffffffffffffffffffffffffffffffffffffffff166108fc839081150290604051600060405180830381858888f193505050501580156100fa573d6000803e3d6000fd5b508080610106906104a5565b915050610091565b505050565b6000604051905090565b600080fd5b600080fd5b600080fd5b6000601f19601f8301169050919050565b7f4e487b7100000000000000000000000000000000000000000000000000000000600052604160045260246000fd5b6101758261012c565b810181811067ffffffffffffffff821117156101945761019361013d565b5b80604052505050565b60006101a7610113565b90506101b3828261016c565b919050565b600067ffffffffffffffff8211156101d3576101d261013d565b5b602082029050602081019050919050565b600080fd5b600073ffffffffffffffffffffffffffffffffffffffff82169050919050565b6000610214826101e9565b9050919050565b61022481610209565b811461022f57600080fd5b50565b6000813590506102418161021b565b92915050565b600061025a610255846101b8565b61019d565b9050808382526020820190506020840283018581111561027d5761027c6101e4565b5b835b818110156102a657806102928882610232565b84526020840193505060208101905061027f565b5050509392505050565b600082601f8301126102c5576102c4610127565b5b81356102d5848260208601610247565b91505092915050565b6000819050919050565b6102f1816102de565b81146102fc57600080fd5b50565b60008135905061030e816102e8565b92915050565b6000806040838503121561032b5761032a61011d565b5b600083013567ffffffffffffffff81111561034957610348610122565b5b610355858286016102b0565b9250506020610366858286016102ff565b9150509250929050565b7f4e487b7100000000000000000000000000000000000000000000000000000000600052601160045260246000fd5b60006103aa826102de565b91506103b5836102de565b9250817fffffffffffffffffffffffffffffffffffffffffffffffffffffffffffffffff04831182151516156103ee576103ed610370565b5b828202905092915050565b600082825260208201905092915050565b7f6e6f7420656e6f7567682076616c75652073656e740000000000000000000000600082015250565b60006104406015836103f9565b915061044b8261040a565b602082019050919050565b6000602082019050818103600083015261046f81610433565b9050919050565b7f4e487b7100000000000000000000000000000000000000000000000000000000600052603260045260246000fd5b60006104b0826102de565b91507fffffffffffffffffffffffffffffffffffffffffffffffffffffffffffffffff8214156104e3576104e2610370565b5b60018201905091905056fea2646970667358221220c07a64cc6348d9f4a2a798037c404bbf1e78c78ef0bfbd304e634be86004b88364736f6c634300080a0033",
  "linkReferences": {},
  "deployedLinkReferences": {}
}